:020000040800F2
:100000008009002005010008AF150008930F0008C3
:10001000AD150008290C0008691E0008000000004A
:10002000000000000000000000000000F51C0008B7
:10003000490D000800000000271B0008091E0008E9
:100040001F0100081F0100081F0100081F01000810
:100050001F0100081F0100081F0100081F01000800
:100060001F0100081F0100081F0100081F010008F0
:100070001F0100081F0100081F0100081F010008E0
:100080001F0100081F0100081F0100081F010008D0
:100090001F0100081F0100081F0100081F010008C0
:1000A0001F0100081F0100081F0100081F010008B0
:1000B0001F0100081F0100081F0100081F010008A0
:1000C0001F0100081F0100081F0100081F01000890
:1000D0001F0100081F0100081F0100081F01000880
:1000E0008D0D00081F0100081F010008DFF810D067
:1000F00000F09CFC00480047FD3F0008AFF3008083
:10010000800900200648804706480047FEE7FEE7D2
:10011000FEE7FEE7FEE7FEE7FEE7FEE7FEE7FEE7B7
:10012000191E0008ED0000082DE9F0410024061B0F
:10013000254671F1000605DA01240027D0EB0700FF
:1001400067EB0101161E73F1000605DA0027D2EBFA
:100150000702012567EB030300F042FB86460E46CB
:1001600017469C46AC4204D00025D0EB050E65EB4B
:10017000010624B10020D2EB000760EB030C7046AF
:1001800031463A466346BDE8F081D2B201E000F85C
:10019000012B491EFBD270470022F6E710B513462B
:1001A0000A4604461946FFF7F0FF204610BD30B559
:1001B00004460020034600E05B1C934203D2E05C4F
:1001C000CD5C401BF8D030BDF0B480EA0102D40F02
:1001D0004200B2EB410F02D20246084611464A00E5
:1001E00042D0C30DDDB2C1F3C752AD1A202D35DAAE
:1001F000C1F3160141F4000204B15242C5F12006D8
:1002000002FA06F12A411044B3EBD05F23D0C4B107
:10021000012DA0EBC35009DCF0BC4FF0004202EA14
:10022000C352DBB200F5000000F045BB400000F116
:10023000807000EBC350A0F1807040EAD17049009B
:1002400009E0490841EAC071A0EBC35000F5000085
:10025000400800EBC350F0BC00F024BB6142012217
:1002600002EB4101001BF6E7F0BC704781F0004152
:10027000AAE780F00040A7E780EA010210B502F08B
:100280000043400022D04A001FD0010E01EB126152
:10029000C0F35600C2F3560240F4000042F40002DC
:1002A000A0FB022000047F39140400D0401C50EA57
:1002B000124001D44000491EC2B20C0604EBD0101B
:1002C000401C4008802A02D003E0002010BD20F02E
:1002D0000100002900DA0020184310BD30B480EA84
:1002E000010202F0004530F0004221F0004013D03E
:1002F00090B1C30DD40DC2F31601C0F31600E41A79
:1003000041F4000140F400027D34914201D3641CA9
:1003100000E04900002C02DA30BC002070474FF4A6
:1003200000000023914201D3891A034340084FEA99
:100330004101F7D151B1914202D14FF0004105E0A6
:1003400002D24FF0010101E06FF0010103EBC45054
:10035000284430BC00F0A6BA420005D0C0F3C75212
:100360005242914201DC0020704700EBC1507047BF
:100370002DE9FE4F804681EA0300C00F0C46009035
:1003800021F0004123F00045B8EB0200A94105D25D
:100390004046214690461C460B46024623F000404C
:1003A000104347D0270DC7F30A00C3F30A51029048
:1003B000401A019040286BDAC3F3130040F4801B0D
:1003C0000098924620B10023D2EB030A63EB0B0B9B
:1003D00001985946C0F14002504600F032FA0646F4
:1003E0000D4650465946019A00F04AFA10EB0800B3
:1003F0006141002487EA115284EAE7731A4340D02E
:10040000009A62B3019A012A4FEA075215DC001BD9
:1004100061EB02014FF0004202EA0752CDE90042CF
:10042000001C41F5801132462B4600F081FA03B0E2
:10043000BDE8F08F40462146F9E7001B61EB020161
:10044000001C41F5801300185B412018A2F500172D
:1004500047EB030140EAD570B6196D4111E06D0814
:100460004FEA360645EAC0754FEA0752001B61EBBA
:100470000201001C41F5801149084FEA30000019C3
:10048000514132462B4603B0BDE8F04F00F041BA6F
:100490000098012240000023D0EB020263EBE073DE
:1004A000009821464FEAE074B8EB000061EB0401CC
:1004B000E9E783F000435BE781F0004158E72DE96D
:1004C000FE4F81EA030404F0004421F0004100944F
:1004D0004FF0000B23F0004350EA01045ED052EAD3
:1004E00003045BD0C3F30A54C1F30A552C44A4F2AD
:1004F000F3340194A0FB0254C1F3130141F48011C1
:10050000C3F3130343F4801301FB024400FB034EC7
:10051000840A970A44EA815447EA8357A4FB076890
:1005200002958D0A05FB07854FEA932C04FB0C54BA
:100530002705029D4FEA065847EA1637B5EB08052E
:100540006EEB070C870E920E47EA811742EA831280
:10055000A7FB0201B6EB0B0164EB00042B0D43EA91
:100560000C335E1844EB1C50DA465146E7FB02019F
:10057000C5F313044FEA0B3343EA14534FEA043232
:10058000019C43EA0603A4F10C040294009CCDE90B
:1005900000B400F0CDF903B0BDE8F08F00200146B3
:1005A000F9E72DE9F04D81EA030404F0004B21F056
:1005B000004514464FF0000A23F0004150EA0502BE
:1005C00020D054EA01021DD0C5F30A570246C5F3F4
:1005D0001303C1F31300C1F30A5640F4801543F42A
:1005E0008013A7EB0608101BD64608F2FD3873EB04
:1005F000050002D308F1010801E092185B41B8F14F
:10060000000F03DA00200146BDE8F08D00204FF412
:100610008011064684460EE0171B73EB050705D3D1
:10062000121B63EB050306434CEA010C49084FEA31
:10063000300092185B4150EA0107EDD152EA030005
:1006400012D082EA040083EA0501084305D0101B9A
:10065000AB4106D20122002306E000224FF0004306
:1006600002E06FF0010253101AEB06004CEB085148
:1006700010EB0A0041EB0B01BDE8F04D00F049B969
:10068000C10F80EAE0700844CA079623002100F0F9
:1006900012B996230022114600F00DB900F0004275
:1006A00020F00040C10DC0F3160040F400007F2987
:1006B00001DA00207047962903DCC1F19601C84099
:1006C00001E096398840002AF4D04042704720F07B
:1006D0000040C10DC0F3160040F400007F2901DA8C
:1006E00000207047962903DCC1F19601C84070478D
:1006F00096398840704700F0004230F000400AD040
:10070000C10D01F56071C0F3160042EA0151C20843
:1007100040071143704700200146704730B5041E62
:1007200071F1000404DB4FF00044404264EB01012E
:10073000141E73F1000405DB1C464FF000435242C7
:1007400063EB04038B4208BF824230BD30B5041E08
:1007500071F1000404DB4FF00044404264EB0101FE
:10076000141E73F1000405DB1C464FF00043524297
:1007700063EB0403994208BF904230BD01F000438F
:1007800030B421F0004150EA010206D00A0DA2F572
:100790006072C1F31301002A02DC30BC00207047F4
:1007A000440F44EAC104C100E01830BC00EBC25061
:1007B00000F078B830B50B46014600202022012415
:1007C00009E021FA02F59D4205D303FA02F5491B1F
:1007D00004FA02F52844151EA2F10102F1DC30BD35
:1007E0002DE9F05F0546002092469B468846064666
:1007F000814640241BE0284641464746224600F0F9
:100800002FF853465A46C01A914110D31146184644
:10081000224600F016F82D1A67EB01084F462246D3
:100820000120002100F00DF817EB00094E41201EB9
:10083000A4F10104DFDC484631462A464346BDE8C0
:10084000F09F202A04DB203A00FA02F100207047D2
:100850009140C2F1200320FA03F3194390407047FE
:10086000202A04DB203A21FA02F00021704721FA05
:1008700002F3D040C2F1200291400843194670476C
:10088000202A06DBCB17203A41FA02F043EAE07354
:1008900006E041FA02F3D040C2F120029140084341
:1008A000194670470029A8BF7047401C490008BF7F
:1008B00020F00100704710B4B0FA80FC00FA0CF090
:1008C00050EA010404BF10BC704749B1CCF12004C8
:1008D00021FA04F411FA0CF118BF01212143084355
:1008E000A3EB0C01CB1D4FEA00614FEA102042BF81
:1008F000002010BC704700EBC35010440029A4BF77
:1009000010BC7047401C490008BF20F0010010BC1B
:10091000704710B5141E73F1000408DA401C41F151
:10092000000192185B411A4301D120F0010010BD73
:100930002DE9F04D92469B4611B1B1FA81F202E0E9
:10094000B0FA80F220329046FFF77BFF04460F4654
:1009500040EA0A0041EA0B0153465A46084313D0C5
:10096000114653EA010019D0C8F140025046FFF782
:1009700077FF05460E46504659464246FFF761FF4F
:10098000084305D0012004E020463946BDE8F08D3B
:100990000020054346EAE0762C4337430A98630576
:1009A000E40AA0EB08000022FD0A44EA47540A309A
:1009B00002D500200146E9E7010510196941DDE98A
:1009C000084500196941BDE8F04DA2E770B521F076
:1009D000004303430CD0C1F30A550024D5EB0405B2
:1009E00064EB0403D617AD1AB34102DB00200146C5
:1009F00070BD201841EB025170BDC1F30A52C1F322
:100A0000130140F2FF3341F480119A4202DA0020D0
:100A10000146704740F233439A42A2F2334202DC6D
:100A20005242FFF71DBFFFF70CBF0000064C074DF9
:100A300006E0E06840F0010394E8070098471034AE
:100A4000AC42F6D3FFF756FBC0660008E06600082C
:100A50002DE9F04D00231A461B1A8A4103DB0020C2
:100A60000146BDE8F08DC1F30A52C1F3130141F410
:100A700080154FF0000BD10702D100186D41521EB6
:100A80000027044640F2FF11384601EB620A3E4659
:100A90008046024600204FF48011FFF7E1FEC219A4
:100AA0007141BB1846EB0100B4EB030C75EB000C75
:100AB00004D3E41A65EB000517460E46241908F125
:100AC00001006D4180463428E3DDF91946EB06004C
:100AD000091BA84103D24FF0FF32134601E0002268
:100AE00013461BEB070046EB0A51BDE8F04DFFF73C
:100AF00010BF002904D0816841F001018160704776
:100B0000816821F0010181607047002904D081686B
:100B100041F4807181607047816821F48071816047
:100B20007047014600208968490700D501207047B9
:100B3000014600208968090700D5012070470000A0
:100B400010B542680E4B1A400C790B6842EA042239
:100B50001343436082680B4B1A40D1E9024323439D
:100B60004C7942EA440213438360C26A22F4700261
:100B7000097C491EC9B242EA0151C16210BD0000A0
:100B8000FFFEF0FFFDF7F1FF70B5072609290AD92E
:100B9000C568A1F10A0404EB4404A640B543A34090
:100BA0001D43C56007E0056901EB4104A640B5435C
:100BB000A3401D4305611F23072A09D2446B521E1F
:100BC00002EB820293409C4391400C43446370BD0E
:100BD0000D2A09D2046BD21F02EB820293409C4380
:100BE00091400C43046370BDC46A0D3A02EB82026B
:100BF00093409C4391400C43C46270BD816841F0B6
:100C0000080181607047002904D0816841F4A00187
:100C100081607047816821F4A0018160704781681C
:100C200041F0040181607047FEE7002904D00168AB
:100C300041F001010160704701684FF6FE721140FA
:100C40000160704730B5026847F6F0739A430C6A4A
:100C50008B682343D1E904452C4323438C69234308
:100C6000CC6923434C6A23438C6A234313430360B8
:100C7000CA6842600A6882604968C16030BD00008D
:100C800010B500F0A9FB682808D0692806D07028A4
:100C900004D0712802D06FF0630010BD03F0C0FBD8
:100CA0000028FAD1782004F003F910B16FF00100A8
:100CB00010BD782003F0C0FA10B16FF0020010BD33
:100CC000C82004F0B3F810B16FF0030010BD02F0BB
:100CD000D3FA10B16FF0040010BD114803F058F9B9
:100CE00002F0D8FC10B16FF0050010BD40F2731097
:100CF00002F082F910B16FF0060010BDC82002F0BA
:100D00000DFC10B16FF0070010BD04F061F9012077
:100D100003F0A4FF10B16FF0080010BD002010BD5B
:100D2000640000200648016841F0807101600548B8
:100D300000214160016841F001010160704700003D
:100D4000FCED00E0001000E0704730B504464FF4C1
:100D50007A7502E0284600F005F8641E601CF9D19F
:100D600030BD000010B506494B68064A064C1268B3
:100D7000B2FBF4F242434868C01A9042FBD310BD64
:100D8000001000E02000002040420F0010B54FF49A
:100D90008064204600F012F8002805D0204600F0BC
:100DA00007F802490120087010BD00000000002073
:100DB000014908607047000014040140014600200A
:100DC000024A12680A4200D0012070471404014010
:100DD00030B51B4A83790168002B2AD013688B43F6
:100DE0001360111D0B680468A3430B600179114463
:100DF0000B68046823430B60114C083421680368B6
:100E000099432160231D19680568A9431960417938
:100E1000102905D011440A68006802430A6030BDF9
:100E20002168026811432160196800680143196054
:100E300030BD0079104402688A43026030BD000072
:100E40000004014010B58A07120F0F23934021F0D0
:100E50000304054921448C689C438C608B68904056
:100E600003438B6010BD0000000001402DE9F041FC
:100E70000022CC7804F00F03E40601D58C782343DC
:100E80000C784FF00F0714F0FF0F4FF0010C1CD03F
:100E900005680CFA02F40E882640A64211D196008D
:100EA00007FA06F825EA080503FA06F848EA0505F0
:100EB000CE78282E02D0482E02D002E0446100E015
:100EC0000461521C082AE4D305600A88FF2A1ED94F
:100ED0004568002202F108060CFA06F40E88264046
:100EE000A64210D1960007FA06F825EA080503FA8B
:100EF00006F848EA0505CE78282E00D14461CE7860
:100F0000482E00D10461521C082AE3D34560BDE895
:100F1000F0810000F0B5154C002801DAE36900E02B
:100F20006368C0F30346420D120185B2C0F3015756
:100F30009540032F07D0C2020CD50322B240934341
:100F400043F0706209E023F07062636823F070631D
:100F5000636002E0AB4343F0706201B12A430028B2
:100F600001DAE261F0BD6260F0BD00000000014006
:100F70000246002092680A4200D001207047416179
:100F8000704701617047002A01D0016170474161DB
:100F90007047FEE738B50121042000F061FE4FF4F0
:100FA000C064ADF8004014208DF8030003208DF8D4
:100FB0000200054D69462846FFF758FF214628469E
:100FC000FFF7DFFF38BD00000008014010B54FF407
:100FD00080610448FFF7CCFF04460520FFF7C2FEFE
:100FE000204610BD0008014010B5012000F06EF849
:100FF000012000F05DF8FFF7E9FF0446002000F053
:1010000057F8204610BD70B50025012000F05EF8AD
:1010100000248026012000F04BF8FFF7D7FF10B125
:1010200026FA04F00543002000F042F8641CE4B204
:10103000082CEFD3284670BD10B500F047F801200A
:1010400000F036F8BDE81040002000F031B870B56F
:1010500005460024802626FA04F0284000D001200E
:1010600000F034F8012000F023F8002000F020F810
:10107000641CE4B2082CEED370BD10B5012000F062
:1010800017F8012000F022F8002000F01FF8BDE85A
:101090001040002000F00CB810B5002000F016F849
:1010A000012000F005F8BDE81040012000F00EB866
:1010B00010B502464FF400710348FFF764FFBDE826
:1010C00010400520FFF74EBE0008014010B5024653
:1010D0004FF480610348FFF756FFBDE8104005203C
:1010E000FFF740BE0008014008B50121082000F0CC
:1010F000B7FD48208DF803004FF47840ADF80000AC
:1011000003208DF8020069460148FFF7AFFE08BDD5
:10111000000C014001608280002181718160704774
:1011200010210148FFF72DBF000C0140102101489C
:10113000FFF725BF000C014008210148FFF721BF40
:10114000000C014008210148FFF719BF000C0140C5
:1011500038B50121092000F083FD01210A48FFF77D
:10116000D9FE10208DF803001820ADF800000320F0
:101170008DF80200054C69462046FFF777FE1821DE
:101180002046FFF7FEFE38BD00023000000C014093
:101190002DE9F74F8AB005468946DFF8CC8107A8CC
:1011A000CDE9008008F11A0108AB03AA881F02F0FC
:1011B0006DF818B101200DB0BDE8F08FB8F800004F
:1011C000C0057CD50398FFF75BFA6FF01D07394621
:1011D000FFF7C2F80446C8F804000498FFF750FA75
:1011E0003946FFF7B9F80646C8F808000598FFF732
:1011F00047FA3946FFF7B0F88246C8F80C0006985F
:10120000FFF73EFA3946FFF7A7F80746C8F810007F
:1012100001212046FFF7A0F85146FFF72DF882463E
:101220004FF0404421463046FFF726F83946FFF795
:1012300023F85146FEF7C8FFFFF75DFA01F08AFB7D
:101240004A4F4FF0663632463B46FFF738F9FFF714
:1012500095FA2860D8F80C0001210546FFF77CF8C4
:1012600082462946FFF708F80546D8F808002146C7
:101270008346FFF701F85946FEF7FEFF2946FEF7C1
:10128000F5FF4FF07E51FEF79FFFFFF734FA04465B
:101290000D460121D8F80400FFF75EF85946FEF725
:1012A000EBFF83465046D8F81010FEF7E5FF59468D
:1012B000FEF78AFFFFF71FFA22462B4600E050E0B8
:1012C00001F090FD32463B46FFF7F9F8FFF756FA7A
:1012D000C9F80000D8F8101089464846FEF7CCFF40
:1012E000D8F80C10044608460991FEF7C5FFD8F857
:1012F000081005468A465046FEF7BEFFD8F804108F
:10130000834688464046FEF7B7FF5946FEF75CFF26
:101310002946FEF7ABFF2146FEF7A8FFFFF7EBF9E2
:1013200004460D4649464046FEF7A6FF8046504615
:101330000999FEF7A1FF4146FEF746FF0121FFF79D
:101340000BF8FFF7D8F922462B4601F04BFD324649
:101350003B46FFF7B4F8FFF711FA0C99086000203C
:1013600029E7022027E700004400002066A64C4041
:101370001FB50121092000F073FC48208DF80700FB
:101380004FF48064ADF8044003208DF8060001A9F5
:101390001048FFF76BFD0A210120FFF753FD02946F
:1013A00001248DF80E4000208DF80C000C208DF8E3
:1013B0000D0002A8FFF70CFD28208DF80000022088
:1013C0008DF801008DF802008DF80340684600F0AA
:1013D00073F91FBD000C0140752000F054B810B522
:1013E000FFF7D8FD01216B2000F08EF800216C2062
:1013F00000F08AF80921192000F086F806211A2049
:1014000000F082F818211B2000F07EF81821BDE8BA
:1014100010401C2000F078B82DE9F04106460F4638
:1014200014461D46FFF729FE7006000EFFF70FFE5B
:10143000FFF7DAFD3846FFF70AFEFFF7D5FDFFF7A5
:101440001CFE012000EB4600C0B2FFF700FEFFF7D4
:10145000CBFD0AE0012C0FD0FFF7D5FD287000204E
:10146000FFF7EAFD6D1C641EE4B2002CF2D1FFF719
:1014700013FE0020BDE8F081FFF7C5FD28700120B4
:10148000FFF7DAFDEEE710B50446FFF7F6FDD020D2
:10149000FFF7DDFDFFF7A8FD2046FFF7D8FDFFF7BA
:1014A000A3FDFFF7EAFDD120FFF7D1FDFFF79CFD7B
:1014B000FFF7A9FD04460120FFF7BEFDFFF7ECFD95
:1014C000204610BD2DE9F04104460F4616461D4644
:1014D000FFF7D3FD6006000EFFF7B9FDFFF784FDAF
:1014E0003846FFF7B4FDFFF77FFD002405E0285DD7
:1014F000FFF7ADFDFFF778FD641CB442F7DBFFF7A3
:10150000CBFD0020BDE8F08170B505460C46FFF725
:10151000B4FD6820FFF79BFDFFF766FD2846FFF747
:1015200096FDFFF761FD2046FFF791FDFFF75CFD9B
:10153000BDE87040FFF7B0BD3021FEF72DBE2DE9AC
:10154000F04104460E46207861780A2704EB8105B5
:101550000A2810D26E603146E06AFEF735FEE0627E
:101560006078401CB0FBF7F107FB11006070207839
:10157000401C207011E06968E06AFEF777FEE062C7
:101580006E603146E06AFEF71FFEE0626078401C44
:10159000B0FBF7F107FB110060702078FFF779F8D6
:1015A0000146E06ABDE8F041FEF798BEFEE77047ED
:1015B00010B500F031F8002000F070FC052215494C
:1015C000302000F052FC13490522491D2A2000F06A
:1015D0004CFC0F21202000F079FC0121212000F09B
:1015E00075FC0021252000F071FC2021312000F045
:1015F0006DFC0121222000F069FC1A21242000F05A
:1016000065FCFF21E22000F061FCBDE810400120F4
:1016100000F044BC34000020F8B501210C2000F09B
:101620001FFB10258DF803508020ADF80000032427
:101630008DF802401E4E69463046FFF717FC8DF8C4
:1016400003502020ADF800008DF802406946304676
:10165000FFF70CFC8DF80350ADF800508DF80240F8
:1016600069463046FFF702FC8DF803500120ADF8C3
:1016700000008DF802400F4F69463846FFF7F6FB31
:1016800048258DF803500220ADF800008DF8024087
:1016900069463846FFF7EAFB8DF803504020ADF865
:1016A00000008DF8024069463046FFF7DFFBF8BDC9
:1016B00000080140000C014070B50F23C2780126DC
:1016C0000178002A1ED0144A126802F4E062C2F5C2
:1016D000E062120AC2F10404D3404578A540827842
:1016E0001A402A43120101F1E02181F80024007818
:1016F00000F01F018E404009800000F1E020C0F89A
:10170000006170BD01F01F0086404809800000F1B3
:10171000E020C0F8806170BD0CED00E02DE9F041E3
:101720007F2828D83F2926D88418802C02D9C0F1D8
:101730008002D2B2CC18402C02D9C1F14003DBB2F6
:1017400001250E4E871801EB030812E0044601F054
:10175000070205FA02FCCA0806EBC21205E0135D97
:1017600023EA0C031355641CE4B2A742F7D8491CC2
:10177000C9B28845EAD8BDE8F08100006C010020BC
:1017800038B500214FF47A720020401C9042FCD3FF
:10179000491C9142F8D30121082000F061FA14207D
:1017A0008DF8030003208DF802004FF48070ADF82F
:1017B0000000094C69462046FFF758FB6115ADF85B
:1017C000001069462046FFF751FB012000F072F936
:1017D000012000F077F938BD000C014070B50546D6
:1017E0000024802626FA04F0284000D0012000F0D2
:1017F00069F9012000F05EF9002000F05BF9641C3B
:10180000E4B2082CEED3012000F054F9BDE870409A
:10181000002000F04FB910B5012000F053F901206D
:1018200000F048F9002000F04DF9BDE8104000201C
:1018300000F040B910B5002000F044F9012000F09C
:1018400039F9BDE81040012000F03CB910B5FFF7B0
:1018500097FFAE2000F03EF9D52000F03BF9802044
:1018600000F038F9A82000F035F93F2000F032F9F7
:10187000D32000F02FF9002000F02CF9402000F0D8
:1018800029F9A12000F026F9C82000F023F9DA2078
:1018900000F020F9122000F01DF9812000F01AF963
:1018A000CF2000F017F9D92000F014F9F12000F052
:1018B00011F9DB2000F00EF9302000F00BF9A42024
:1018C00000F008F9A62000F005F98D2000F002F9DB
:1018D000142000F0FFF8BDE81040AF2000F0FAB887
:1018E0000346012000E05843491E4A1CFBD17047C3
:1018F00010B50C4640F0B00000F0ECF8102040EAC3
:10190000141000F0E7F804F00F00BDE8104000F0FC
:10191000E1B8000008B5203A082B0CD0062B09D1FD
:10192000094B02EB420203EB42020092082306221B
:1019300000F00EF808BD054B03EB021200921023D5
:10194000082200F005F808BDFC5600080C510008FC
:101950002DE9F84F8246894690461C46BAF17F0F22
:1019600045D8B9F13F0F42D8234642464946504632
:10197000FFF7D4FE0025641EE01704EB507001222F
:1019800002EBE000DFF86CC009F0070100902BE0EB
:10199000002325E00AEB03047F2C23D805EBD906AE
:1019A000072E24D80A9805FB08F718440CEBC6123A
:1019B00017F800E012F804B00EFA01FE4BEA0E0B25
:1019C00002F804B0761C072E08D80CEBC612385C5F
:1019D000165DC1F10807F840064316555B1CDBB2E3
:1019E0004345D7D36D1CEDB20098A842D0DCBDE8CA
:1019F000F88F00006C0100202DE9F0478046DDF8EB
:101A000020908A4616461F46002E06DB4B462B22A8
:101A100051464046FFF77EFF06E04B462D225146D9
:101A20004046FFF777FF764200240A2514E0391B71
:101A3000491E0A20FFF754FFB6FBF0F0B0FBF5F1AA
:101A400005FB1102641C04FB09803032C0B24B4616
:101A50005146FFF75FFFE4B2BC42E8D3BDE8F08730
:101A60002DE9F0410546884616461F46002408E049
:101A700004FB0750C0B23B464146FFF74BFF641CD6
:101A8000E4B2325D002AF3D1BDE8F08170B50024E4
:101A9000074D00212046FFF72BFF05EBC4108021E6
:101AA00000F029F8641CE4B2082CF2D370BD0000E9
:101AB0006C01002002464FF480710148FFF763BAC1
:101AC000000C014002464FF400710148FFF75BBA79
:101AD000000C014010B50446FFF79DFE7820FFF78B
:101AE0007DFE0020FFF77AFE2046FFF777FEBDE877
:101AF0001040FFF79FBE70B505460E46FFF78BFE00
:101B00007820FFF76BFE4020FFF768FE002404E01A
:101B1000285DFFF763FE641CE4B2B442F8D3BDE86D
:101B20007040FFF787BE704770B592B00121480240
:101B300000F096F80121042000F092F801210846F7
:101B400000F080F84FF4004000F072F800248DF8A7
:101B500047400E20ADF8440003258DF8465011A9EA
:101B60002F48FFF783F92F4E0122052311463046F7
:101B7000FFF70AF80222052311463046FFF704F862
:101B80000322052311463046FEF7FEFF0C940F9406
:101B90004FF460200E9001218DF835108DF834102F
:101BA0008DF840500CA93046FEF7CAFF1D484C3056
:101BB00001908015079005941B48029030150890FD
:101BC0008020069003940495202009900B94C00176
:101BD0000A90164C01A92046FFF734F8012120464F
:101BE000FFF723F801213046FEF78FFF0121304631
:101BF000FEF77FFF3046FFF701F83046FEF798FF0B
:101C00000128FAD03046FFF70AF83046FEF789FF80
:101C10000128FAD001213046FEF7F5FF12B070BD61
:101C200000080140002401403E000020080002405E
:101C3000034A516821F4404101435160704700005C
:101C400000100240054A002903D051690143516147
:101C50007047516981435161704700000010024094
:101C6000054A002903D09169014391617047916948
:101C70008143916170470000001002400221014839
:101C8000FFF776B9000C014040210148FFF770B919
:101C90000008014010B50446002000F007F9204676
:101CA00000F009F8FF2000F006F80446012000F0DB
:101CB000FDF8204610BD2DE9F0410746002500241F
:101CC0004FF0800828FA04F00646384000F0F6F895
:101CD000012000F00DF9FFF7D7FF012800D13543AF
:101CE000002000F005F9641CE4B2082CEAD3284671
:101CF000BDE8F081704710B501462022A02000F019
:101D0000B4F8002000F0CAF80E21202000F0DEF820
:101D1000012000F0C3F8FFF7B1FF0128FBD0072036
:101D2000FFF7B8FF0446E00609D5FF21E12000F0E7
:101D3000CDF82146272000F0C9F8102010BDA006DC
:101D400005D52146272000F0C1F8202010BD002035
:101D500010BD00F001B800000CB500220192009205
:101D60002748016841F4803101604FF4A0630168A5
:101D700001F4003100910199491C0191009911B9B8
:101D800001999942F3D10168890302D5012100919B
:101D900000E000920099012930D11A490A6842F006
:101DA00010020A600A6822F003020A600A6842F020
:101DB00002020A604168416041684160416841F443
:101DC00080614160416821F47C114160416841F4C7
:101DD000E8114160016841F080710160016889018A
:101DE000FCD5416821F003014160416841F00201E6
:101DF00041604168C1F381010229FAD10CBD0000A4
:101E0000001002400020024002480168491C0160A5
:101E1000704700001C00002010B50F48016841F019
:101E20000101016041680D4A1140416001680C4A9E
:101E300011400160016821F480210160416821F4B2
:101E4000FE0141604FF41F018160FFF782FF0549E9
:101E50004FF00060086010BD001002400000FFF865
:101E6000FFFFF6FE08ED00E0FEE770B504460D4604
:101E70001646002000F01AF82046FFF71CFF002449
:101E800004E0285DFFF717FF641CE4B2B442F8D306
:101E9000BDE87040012000F009B8000002460121B1
:101EA0000148FFF770B80000000C01400246102105
:101EB0000148FFF768B80000000801400246802191
:101EC0000148FFF760B800000008014070B5054602
:101ED0000C460020FFF7EAFF2846FFF7ECFE2046FD
:101EE000FFF7E9FEBDE870400120FFF7DFBF00000B
:101EF000024620210148FFF746B8000000080140D3
:101F00000FB4054B10B503A9044A029800F05CF920
:101F100010BC5DF814FB00001D3A0008A80000206A
:101F2000490050EAC12018BF04204A0D18BF40F0F4
:101F3000010040F2FF72B2EB515F08BF40F00200B7
:101F4000012808BF052070472DE9F0414F1E00EB26
:101F5000C7010446D1E9000115461E4637F00602C6
:101F60000DD02A463346FEF7AAFA7F1E04EBC703BC
:101F7000D3E90023FEF7FCF937F00602F1D1022F76
:101F800025D0042F13D0062F18BFBDE8F0812A46B4
:101F90003346FEF794FAD4E90A23FEF7E9F92A4614
:101FA0003346FEF78CFAD4E90823FEF7E1F92A4616
:101FB0003346FEF784FAD4E90623FEF7D9F92A4618
:101FC0003346FEF77CFAD4E90423FEF7D1F92A461A
:101FD0003346FEF774FAD4E90223FEF7C9F92A461C
:101FE0003346FEF76CFAD4E90023BDE8F041FEF772
:101FF000BFB90122FEF7EABCFEF7BAB900221346C8
:1020000010461146FEF7CDBA024A00201107FEF72E
:10201000DDBC000001FDFFFF02E008C8121F08C17F
:10202000002AFAD170477047002001E001C1121F59
:10203000002AFBD17047000001490860704700008A
:10204000AC0000202DE9FF5F82B00021DDE9043003
:10205000020DDDF840B0034318D044F61050A2F250
:10206000FF3242431514119801281FD0A5EB0B0035
:10207000401C5FEA000A4FF000064E4FDFF838912F
:10208000B046504615D5CAF1000413E0119801245A
:102090004AA3012801D16FEA0B010298119AC0E905
:1020A0000031C0E9024206B0BDE8F09FCBF100006C
:1020B000DFE704460021404A491842EB0450CDE9CD
:1020C000001012E0E00707D032463B464046494642
:1020D000FEF7F5F98046894632463B4610461946DA
:1020E000FEF7EDF906460F466410002CEAD1DDE953
:1020F0000401DDE90023BAF1000F06DAFEF7DFF98B
:1021000042464B46FEF7DBF905E0FEF74AFA424647
:102110004B46FEF746FA04460E460022284BFEF7D1
:1021200015FB03D84FF0FF30014607E00022254B96
:1021300020463146FEF71CF9FEF75FFC102409E04B
:10214000002C0ADB0A220023FEF74AFB039B3032F5
:102150001A55641E50EA0102F2D1641C039AC4F1BC
:1021600011031444119A012A03D0012208430DD10E
:102170000AE0084304D000204FF0110B119072E7E1
:10218000A3EB0B056D1E0DE05B4504DD4FF0000277
:1021900005F1010504E003DA4FF00002A5F10105A5
:1021A000002AECD002981199C0E90231C0E900453B
:1021B00079E70000000014400000F03F300000000C
:1021C0000000F0430000E03F2DE9FF4F95B09A4634
:1021D000884606460025EEE1252877D100242746CB
:1021E000F94A0121039400E0044316F8013F203B23
:1021F00001FA03F01042F7D130782A2811D06FF09D
:102200002F033078A0F13002092A16D8039A44F03F
:10221000020402EB820203EB42021044761C03909C
:10222000EFE758F8042B0392002A03DA504244F4F3
:102230000054039044F00204761C30782E2816D106
:1022400016F8010F44F004042A280DD06FF02F0275
:102250003078A0F13003092B09D807EB870302EB94
:102260004303C718761CF3E758F8047B761C3078D4
:102270006C280FD006DC4C2817D068280DD06A28AF
:1022800014D104E0742810D07A280FD10DE044F462
:1022900000140AE044F4801401E044F4401472781D
:1022A000824202D104F58014761C761C30786628B0
:1022B0000BD013DC582877D009DC002875D04528CE
:1022C000F6D04628F4D047281AD193E118E06328C5
:1022D00035D0642879D0652812D18BE1702873D06D
:1022E00008DC6728F1D069286FD06E280DD06F28E0
:1022F00006D1ACE073282CD0752874D0782853D040
:102300005246179990476D1C54E1C4F302500228BD
:1023100009D003280DD0D8F8001004280DD00D6086
:1023200008F1040846E1D8F80010EA17C1E90052A4
:10233000F6E7D8F800100D80F2E70D70F0E718F816
:10234000041B8DF8001000208DF80100EB460120E1
:1023500003E058F804BB4FF0FF3061074FF0000175
:1023600002D40DE009F101018946B9420FDA814535
:10237000F8DB1BF809100029F4D108E009F101018C
:1023800089468142FADB1BF809100029F6D103982F
:102390005346A0EB090721463846179A00F080FA09
:1023A000284400EB090507E044E008E10DE01BF8D4
:1023B000010B524617999047B9F10109F7D25346DC
:1023C00021463846179AF2E039E00A21C4F3025256
:1023D0004FF0000B0091022A06D058F8040BC117E9
:1023E000032A09D00AE023E008F1070020F00702E1
:1023F000F2E80201904605E000B2C117042A01D1BB
:1024000040B2C117002906DA0A460021404261EBBA
:1024100002012D2202E0220504D52B228DF8042092
:10242000012203E0E20701D02022F7E7914657E0BE
:102430000A2100E010214FF0000B00910BE0102169
:102440004FF0000B44F004040827009103E008203B
:102450004FF0000B0090C4F30252022A05D058F846
:10246000040B0021032A08D008E008F1070020F03F
:102470000702F2E80201904603E080B2042A00D18C
:10248000C0B24FF0000922072AD53278702A07D04F
:10249000DDF800C08CF0100C5CEA0B0C05D00EE0EF
:1024A00040228DF80420012208E050EA010306D002
:1024B00030238DF804308DF8052002229146009BD0
:1024C00083F0080353EA0B030AD150EA010201D159
:1024D000620705D530228DF804204FF001097F1ED8
:1024E0003278582A04D039A20C920CAA02920BE03E
:1024F0003BA2F9E75B46009AFEF772F90C9B9B5CE6
:10250000029A521E0292137050EA0102F2D102980E
:1025100004A9081A00F1200B600702D524F48034C6
:1025200000E001275F4502DDA7EB0B0000E0002083
:1025300000EB0B01009003984944401A0390E0031C
:1025400006D453462146179A039800F0A9F905448A
:10255000002706E001A85246C05D179990476D1C00
:102560007F1C4F45F6DBE0030CD553462146179AF6
:10257000039800F095F9054404E03020524617997D
:1025800090476D1C0099481E00900029F5DC08E07A
:102590000298029952460078491C02911799904777
:1025A0006D1CBBF10001ABF1010BF1DC5BE100F054
:1025B00065F90544761C307800287FF40DAE19B01B
:1025C0002846BDE8F08F0000092801003031323381
:1025D000343536373839616263646566000000005F
:1025E0003031323334353637383941424344454649
:1025F00000000000600700D4062708F1070020F063
:102600000700F0E80223804603F0004C5FEA0C006C
:1026100001D097A009E0200501D596A005E0E007CC
:1026200001D095A001E0AFF24C001390307823F078
:10263000004365280CD006DC452809D046281DD06B
:1026400047287FD13BE0662818D067287AD136E04A
:102650000021112F01DB112000E0781CCDE90001E1
:1026600004A90CA8FFF7EEFCDDE90D010C9A4FF070
:10267000000B07F10109109200914EE04FF000406D
:102680000097CDE9011004A90CA8FFF7DBFCDDE9F8
:102690000D020C9B0F994FF0000B91461093009286
:1026A00011B9791C00EB0109B7EB090003D4C0F1A3
:1026B000FF3B07F10109A9EB0700019042E0012F60
:1026C00000DA01270021112F01DD112000E038463A
:1026D000CDE9000104A90CA8FFF7B4FCDDE90D0168
:1026E0000C9A00914FF0000BB946109221070FD4BD
:1026F000009A4A4503DA914601E0A9F10109B9F1CE
:10270000010F05DD109AA9F10101515C3029F4D0C7
:10271000B84202DA10F1040F03DA0121CDE9011009
:1027200010E0002803DC8344A9EB000102E0411C17
:10273000494500DD8946A0EB0B00401C01904FF09D
:1027400000400290200705D40198484502DB4FF075
:10275000FF30019000208DF84B0002980DF14B07DF
:10276000B0F1004F25D002200C902B200D90029844
:1027700000280CDA404202902D200D9007E00A213B
:102780000298FEF717F83031029007F8011D0C99F6
:10279000481E0C900029F2DC02980028EFD1791E27
:1027A0000D980870307800F0200040F0450007F8E0
:1027B000020D11A8C01BC01D02901398007800B133
:1027C000012000EB0901019801EBE071029801443E
:1027D0000398401A401E0390E00306D45346214656
:1027E000179A039800F05CF805441398007818B124
:1027F0005246179990476D1CE00323D55346214656
:10280000179A039800F04CF805441BE0BBF1000F49
:1028100007DB0098584504DD1098179910F80B0055
:1028200001E0179930205246904701980BF1010BB7
:10283000401E05F10105019004D12E205246179942
:1028400090476D1CB9F10001A9F10109DEDC05E03A
:1028500017F8010B5246179990476D1C0299481EB4
:1028600002900029F4DC53462146179A03989EE60D
:102870002D0000002B000000200000002DE9F04199
:10288000044600251E461746880404D405E0394650
:102890002020B0476D1C641EF9D52846BDE8F081A4
:1028A0002DE9F041044600251E469046C80301D597
:1028B000302700E02027880404D505E0414638464B
:1028C000B0476D1C641EF9D52846BDE8F0810000B4
:1028D0002DE9FE4F074688460025684601F0A8F816
:1028E00000246FF00F0AE946012657F8240058F833
:1028F0002410401A00D54042FDF7C2FE5146FDF7B4
:102900002BFD59F8241011F0FF4F0ED0FDF7E6FC17
:102910004FF07E51FDF7AAFC0B4920F000408842A1
:102920000BDD06FA04F0054307E0084908440849AE
:10293000884202D306FA04F00543641C032CD4DB5E
:102940002846BDE8FE8F0000295C0F3E666666C122
:102950009A99D9002DE9F04D8D4F21F0004A86B0AB
:1029600005460C46BA452ADBAAEB070028430AD0E5
:102970008848824501DC1AD1CDB106B02846BDE8B1
:10298000F04DFFF736BB844A844B2846FDF797FD90
:1029900007460E46824A834B28462146FDF78FFDA7
:1029A00006B03A463346BDE8F04DFDF7E1BC0120E4
:1029B000FFF742FB06B0BDE8F04DFFF71FBB7A48BA
:1029C000824542DABAF1795F0BDA2846FFF7A8FAB6
:1029D000042808BFFFF718FB284606B02146BDE8CB
:1029E000F08D2A460B461046FDF769FD83460246E8
:1029F0006E480E460B4606217844FFF7A5FA5A4664
:102A00003346FDF75CFD804669488A465A463346A0
:102A100004217844FFF798FA5A463346FDF74FFDF4
:102A200000223B46FDF7A4FC02460B4640465146B9
:102A3000FDF7B7FD2A462346FDF741FD06B02A46BD
:102A40002346BDE8F04DFDF793BC284624F0004135
:102A500000223D463B46FDF72FFD4FF0FF32FDF7CC
:102A6000B5FF0646024653480F460B4606217844FA
:102A7000FFF76AFA32463B46FDF721FDCDE900013A
:102A80004D4832463B4604217844FFF75DFA324612
:102A90003B46FDF714FD00222B46FDF769FC8346FB
:102AA00002913046394602F00BFB804643480D4602
:102AB000504517DCDDE900015A46029BFDF771FD28
:102AC00042462B46FDF7FBFC42462B46FDF750FCE9
:102AD0000122FDF77BFF304A304BFDF7EAFC304A1C
:102AE000304B4CE04FF0000A52460B464046FDF793
:102AF0003FFCCDE9031052462B4610461946FDF720
:102B0000DEFC32463B46FDF7D7FCDDE90332FDF73C
:102B100048FD06460F46DDE900015A46029BFDF7D7
:102B200040FD83460091012230463946FDF74EFFB5
:102B3000194A1A4BFDF7C0FC06460F4601224046D3
:102B40002946FDF743FF5A46009BFDF7B8FC324685
:102B50003B46FDF7AEFC06460F460122504629468D
:102B6000FDF734FF0E4DDFF858802A464346FDF747
:102B7000A3FC32463B46FDF79FFC2A464346FDF741
:102B80009BFC002CD8BF81F0004106B0BDE8F08D61
:102B90000000F03F0000F07F075C143326A6913C54
:102BA000182D4454FB21F93F0000E03F843B000016
:102BB0009A3B00000E3B0000243B00003333EF3F04
:102BC000FB21E93F2DE9F84F04460D4621F0004076
:102BD00000917349814211DC7249884201DC06D1BF
:102BE0002CB120462946BDE8F84FFFF702BA6E48DF
:102BF000002DCCBF6D496E49BDE8F88F6D4981420B
:102C000011DD6D498142D8BF4FF0FF366DDD2046A2
:102C10002946FFF785F9042808BFFFF7F5F9204694
:102C20002946BDE8F88F6549654F25F0004581428A
:102C300033DD6449814219DD002632464FF080437E
:102C400020462946FDF794FB80468A46012220460D
:102C50002946FDF7BBFE00223B46FDF72AFC424613
:102C60005346FDF79EFC04460D463EE00126002239
:102C7000BA463B4620462946FDF77AFB80460F467A
:102C80000022534620462946FDF713FC42463B46A8
:102C9000FDF787FC04460D4627E04B4981421BDDCA
:102CA000DFF828A102260022534620462946FDF7D8
:102CB00006FC00223B46FDF75BFB80460F460022E8
:102CC000534620462946FDF7F4FB42463B46FDF7B6
:102CD00068FC04460D4608E0032622462B460020E9
:102CE0003B49FDF75EFC04460D4622462B46104646
:102CF0001946FDF7E4FB8B46824602460B46FDF77C
:102D0000DEFB07460246334888460B4606217844D8
:102D1000FFF71AF952465B46FDF7D1FB82462E4873
:102D20008B463A46434605217844FFF70DF93A466B
:102D30004346FDF7C4FB02460B46002E504659465B
:102D40000CDAFDF715FB22462B46FDF7B8FB01B068
:102D500022462B46BDE8F04FFDF7AEBBFDF708FB62
:102D600022462B46FDF7ABFB1C4A7A4402EBC60316
:102D7000D3E90023FDF79DFB22462B46FDF799FB87
:102D8000174A7A4402EBC603D3E90023FDF794FB0C
:102D9000009A002AB8BF81F00041BDE8F88F00001A
:102DA000000010440000F07F182D4454FB21F93F2F
:102DB000FB21F9BF0000DC3F0000203E0000F33F94
:102DC0000000F03F0000E63F008003400000F83FB5
:102DD0000000F0BF26390000E4380000823800000F
:102DE0004A3800002DE9F04D9446CCF1000423F060
:102DF00000464CEA0404594F46EAD4749A46884681
:102E000021F00042BC4206D8454240EA050442EAAD
:102E1000D474BC4204D9BDE8F04D6246FFF7ECB86B
:102E2000AAF14055A5F17F6555EA0C040BD00224A8
:102E300004EAAA744A4DDFF82CE144EAD87452EA55
:102E4000000B04D00CE0BDE8F04DFFF7BBBE002C3A
:102E500014BF012CBDE8F08D022C30D0032C32D0F1
:102E600056EA0C0B0AD0BE4220D1BA4209D126F054
:102E7000804622F080423346114617E000291ADBD3
:102E800025E0DFF8E4B0FB44002C04BFDBE90001DF
:102E9000BDE8F08D012C02BFDBE9000181F00041AB
:102EA000BDE8F08D022C0AD0032C0CD0BA4212D10E
:102EB000B8F1000F0BDA2A482C49BDE8F08D2846FE
:102EC0002B49BDE8F08D28467146BDE8F08D2448B9
:102ED0002849BDE8F08D921B12153C2AC4BF204F33
:102EE000244E10DCBAF1000FBEBF12F13C0F0027D8
:102EF0003E4608DB6246FDF754FB21F00041FFF738
:102F000061FE07460E4694B1012C08BF86F00046CC
:102F10000DD0194A194B022C3846314615D0FDF711
:102F2000C8FA2A46BDE8F04D114BFDF7C2BA00229F
:102F3000134638463146FDF7F1FB04BF0220FFF788
:102F40007BF838463146BDE8F08DFDF7B2FA2A46E7
:102F5000BDE8F04D064BFDF7AFBA00000000F07F72
:102F6000182D4454FB2109C0DE370000FB21F9BFB6
:102F7000FB210940FB21F93F075C143326A6A13C45
:102F800070B50446E07800F0C00500F03F006178BD
:102F9000094EC90707D0C30800F00701491C326871
:102FA0000AB1184690476078000703D5716809B1E7
:102FB000A8098847002070BD6C05002008B50028CE
:102FC0000CD020208DF8000028208DF80100302042
:102FD0008DF8020038208DF8030004E0A3220421BC
:102FE0006846FDF7D2F86A46042140F69E2001F0BB
:102FF000B7FF01F03BFC08BD3EB5044602208DF84A
:103000000000CA208DF80100E3208DF8020009209D
:103010008DF803006A460421682001F0A1FFA32077
:103020008DF80000610609D5C0218DF80110C82176
:103030008DF80210C2218DF8031005E08DF8010013
:103040008DF802008DF8030014F4C07F09D0C4216C
:103050008DF80410CC218DF80510C6218DF80610CE
:1030600005E08DF804008DF805008DF806008DF858
:1030700007008DF808008DF809006A460A2140F61D
:10308000A72001F06DFFA0074FF0D80503D0202046
:103090008DF8000001E08DF800506A46012140F6ED
:1030A000B62001F05DFFA00603D5012000F09AF8DC
:1030B00002E0002000F096F814F4C07F20D0E00574
:1030C0000CD5B2208DF800008B208DF80100B620C1
:1030D0008DF802009B208DF803000BE0B0208DF8E6
:1030E000000080208DF80100B4208DF802009020AF
:1030F0008DF803006A46042140F6A22001F030FF5B
:10310000E0074FF40B6323D0F8208DF800006A46E7
:103110000121184601F024FFFA21072000F0ACFB42
:10312000072000F07BFB012000F094FB642000F0FE
:1031300055FC4FF4FA7000F061FCC821274800F0FC
:1031400035FB282000F04AFB0A2000F057FB06E080
:103150008DF800506A460121184601F001FFA007D2
:1031600003D5D9208DF8000001E08DF800506A46A3
:10317000012140F23D7001F0F3FE600703D501200C
:1031800000F05CF802E0002000F058F8E00603D5FB
:103190000120FFF713FF02E00020FFF70FFF104DA3
:1031A00044F00800688101F061FB0020A87360060C
:1031B00001D50620A87314F4C07F02D0A87B801D1F
:1031C000A87314F0140F02D0A87B1030A873A007C6
:1031D00002D0A87B001DA87300203EBD09E3CA02EF
:1031E0006C0500200EB54FF4976300280CD00DA09D
:1031F000D0E900128068CDE9001202906A460921E8
:10320000184601F0ADFE0EBD09A0D0E9001280689D
:10321000CDE9001202906A460921184601F0A0FE8D
:103220000EBD0000B8AAB38DB4980D355D00000046
:10323000B8AAAAAAB088C3C5C700000008B500286C
:103240000CD0C0208DF80000C2208DF80100C420F1
:103250008DF80200C6208DF8030004E08B220421C3
:103260006846FCF792FF6A46042140F6982001F078
:1032700077FE01F0FBFA08BDC8234FF480620249D3
:1032800040F6F63001F0A2B9885900082DE9FF4F49
:103290008DB01646DDE91A52074688460024A1463D
:1032A000A5F80090DFF864B105A99BF80E0001F0C5
:1032B0004FFA4FF0FF3A18B1504611B0BDE8F08F09
:1032C000BBF80A3013F0140F61D09DF817009DF879
:1032D00014109DF8162040EA01609DF815100904AD
:1032E00041EA0221084330609DF81B109DF8182028
:1032F0009DF81A4041EA02619DF81920120442EA41
:103300000422114371609DF81F209DF81C409DF818
:103310001EC042EA04629DF81D40240444EA0C24C5
:103320002243B2609DF823409DF820C09DF822B052
:1033300044EA0C6C9DF82140240444EA0B244CEA36
:10334000040CC6F80CC0102400140190081402905C
:10335000101403904FEA2C400490019802994043C6
:1033600001FB01010398049A404302FB0200084458
:10337000A0F17060B0F1007F05D901F077FAA5F8EF
:103380000090504699E7288840F4807028805906BC
:1033900005A818D50219065D517841EA0621A8F85A
:1033A0000010D178967841EA0621A8F802105179E8
:1033B000127941EA0221A8F80410A41DE4B2298878
:1033C00041F00801298013F4C07F15D00119065D72
:1033D0004A7842EA06223A80CA788E7842EA062281
:1033E0007A804A79097942EA0121B980A41DE4B2C0
:1033F000298841F070012980990702D02044FFF705
:10340000BFFD109800F017FF002056E76C05002064
:1034100030B587B00446684600F060FFBDF8000094
:10342000420CC1033C48038903F0030054F8200018
:103430000490580702D5049840420490C3F3C10099
:1034400054F820000590980602D505984042059052
:10345000C3F3811054F820000690D80502D50698D1
:10346000404206900498A0FB0145C31703FB01539B
:1034700000FB0230830043EA947004900598A0FB9F
:103480000145C31703FB015300FB0230830043EAED
:10349000947005900698A0FB0145C31703FB0151EA
:1034A00000FB0210810041EA947006900498000E1F
:1034B0008DF804000498000C8DF805000498000AAB
:1034C0008DF8060004988DF807000598000E8DF819
:1034D00008000598000C8DF809000598000A8DF881
:1034E0000A0005988DF80B000698000E8DF80C0068
:1034F0000698000C8DF80D000698000A8DF80E0055
:1035000006988DF80F0001AA0C214FF4257001F0E8
:1035100027FD07B030BD00006C05002030B585B038
:10352000044616A1D1E900028968CDE90321029081
:103530004FF0FF35C82C02D9284605B030BDC82051
:10354000B0FBF4F1491E080A8DF800008DF8011057
:103550006A46022140F2162001F002FD08B1284619
:10356000EBE702AA0C2140F6C12001F0F9FC08B1FA
:103570002846E2E7044884810020DEE7FEF2ABC47F
:10358000AAF1DFDFBBAFDFDF6C0500201FB53F49CD
:10359000098901F0030250F8222001924A0702D55E
:1035A000019A52420192C1F3C10250F822200292C4
:1035B0008A0602D5029A52420292C1F3811250F851
:1035C00022000390C80502D503984042039030487A
:1035D000019981FB00218B0043EA927101910299CC
:1035E00081FB00218B0043EA92710291039981FBD8
:1035F0000001800F40EA810003900198000E8DF8D1
:1036000000000198000C8DF801000198000A8DF867
:10361000020001988DF803006A4604214FF474708B
:1036200001F09EFC4FF0FF3410B1204604B010BDF5
:103630000298000E8DF800000298000C8DF8010031
:103640000298000A8DF8020002988DF803006A467D
:1036500004214FF4757001F083FC08B12046E5E7C2
:103660000398000E8DF800000398000C8DF80100FF
:103670000398000A8DF8020003988DF803006A464B
:1036800004214FF4767001F06BFCCFE76C0500204D
:1036900009E3CA0230B587B004463FA00068049031
:1036A0003EA0006803903EA0006802903DA0006824
:1036B000019004F0030004AB195C8DF81810C4F3FA
:1036C000C102995C8DF81910C4F381115B5C8DF80F
:1036D0001A3003AB185C8DF81400985C8DF8150057
:1036E000585C8DF8160006AA032140F2264001F02E
:1036F00037FC4FF0FF3510B1284607B030BD05AAA2
:10370000032140F22A4001F02BFC08B12846F4E7DF
:10371000029806900198059060070BD59DF8180057
:1037200040F001008DF818009DF8140040F00100F1
:103730008DF81400A0060BD59DF8190040F001008B
:103740008DF819009DF8150040F001008DF8150066
:10375000E0050BD59DF81A0040F001008DF81A0025
:103760009DF8160040F001008DF8160006AA03210E
:103770004FF4886001F0F4FB08B12846BDE705AAC4
:10378000032140F2314001F0EBFB08B12846B4E7D9
:10379000054804810020B0E74CCD6C000CC92C001A
:1037A00036567600264666006C05002008B54FF4B4
:1037B0007A7290FBF2F04843010E8DF80010010C74
:1037C0008DF80110010A8DF802108DF803006A4689
:1037D00004214FF4AE7001F0C3FB08BD08B505210C
:1037E000B0FBF1F0010A8DF800108DF801006A4677
:1037F00002214FF4AD7001F0B3FB08BD08B50521FF
:10380000B0FBF1F0010A8DF800108DF801006A4656
:1038100002214FF4AC7001F0A3FB08BD08B50021F4
:103820000091C10701D030210091810704D59DF896
:10383000001041F00C010091400704D59DF80000F4
:1038400040F0030000906A4601214FF4A47001F09B
:1038500087FB08BD08B500280BD0042800D9042038
:10386000401E00906A46012140F24F1001F078FBA3
:1038700008BD0120F4E700002DE9FC41054608469B
:1038800069074FF0FF3602D0B0F5C86F02D9304655
:10389000BDE8FC81FCF7FDFE4B49FCF71FFD074628
:1038A000684600F0F9FC9DF80000022807D00428C3
:1038B00014D0082821D010282ED03046E8E70E2159
:1038C0003846FCF749FDFCF702FF84B23F49384611
:1038D000FCF7D2FCFCF7FBFE80B22BE00D21384652
:1038E000FCF73AFDFCF7F3FE84B239493846FCF7A1
:1038F000C3FCFCF7ECFE80B21CE00C213846FCF760
:103900002BFDFCF7E4FE84B232493846FCF7B4FCE8
:10391000FCF7DDFE80B20DE00B213846FCF71CFD04
:10392000FCF7D5FE84B22C493846FCF7A5FCFCF721
:10393000CEFE80B2210A8DF804108DF80540010AF0
:103940008DF806108DF80700E80701AC11D001AA28
:1039500002214FF4EA7001F003FB08B1304697E70B
:10396000A21C02214FF4927001F0FAFA08B130461D
:103970008EE7A80711D501AA02214FF4EC7001F0DF
:10398000EFFA08B1304683E7A21C02214FF494708D
:1039900001F0E6FA08B130467AE7680711D501AAC6
:1039A00002214FF4EE7001F0DBFA08B130466FE708
:1039B000A21C02214FF4967001F0D2FA08B13046F1
:1039C00066E7002064E7000000004843000040462E
:1039D0000000C045000040450000C04408B5052176
:1039E000B0FBF1F0010A8DF800108DF801006A4675
:1039F00002214FF4EF7001F0B3FA08BD08B50521BC
:103A0000B0FBF1F0010A8DF800108DF801006A4654
:103A100002214FF4ED7001F0A3FA08BD38B5044659
:103A20008DF8000069460320ABBE204638BD00007B
:103A30002DE9FC410546264801AB042240680D21D2
:103A40000078FDF7E9FC10B10720BDE8FC819DF886
:103A500007009DF80420C0F3011102F0E00241EAE2
:103A6000D2018DF800109DF80520C0F3810102F00D
:103A7000E00241EAD2018DF801109DF8061000F035
:103A8000030001F0E00140EAD1008DF802000024BB
:103A90006E46305D20B10F4845F824000E4F0AE015
:103AA000002045F824000CE055F824003946FCF7C6
:103AB000E3FB45F82400305D401E10F0FF00305558
:103AC000F2D1641CE4B2032CE3D30020BDE7000074
:103AD000700000207B14AE3E1D5A843F2DE9F04754
:103AE00088B005460C46924601208DF81400002748
:103AF0008DF81570DFF8B88305AB0222D8F8000006
:103B0000817CD8F804000078FDF7DCFC4FF0FF3929
:103B100018B1484608B0BDE8F087C820FDF715F990
:103B20008DF81470D8F8000005AB0122C17BD8F8DD
:103B300004000078FDF7C6FC08B14846EAE7D8F86B
:103B4000000005AB01224179D8F804000078FDF7A8
:103B5000B9FC08B14846DDE7D8F8000005AB012202
:103B6000817CD8F804000078FDF7ACFC08B1484629
:103B7000D0E7D8F8000005AB0122C17DD8F80400D9
:103B80000078FDF79FFC08B14846C3E7D8F800006D
:103B900005AB01220179D8F804000078FDF792FC0A
:103BA00008B14846B6E70C268DF81460D8F8000036
:103BB00005AB01220179D8F804000078FDF782FCFA
:103BC00008B14846A6E70F20FDF7BFF8D8F828004F
:103BD000407A8DF81400D8F8000005AB01228178F6
:103BE000D8F804000078FDF76DFC08B1484691E76D
:103BF000D8F82800007A8DF81400D8F8000005AB3A
:103C000001224178D8F804000078FDF75BFC08B188
:103C100048467FE7BAF1000F07D0D8F82800807A2D
:103C200040F0E0008DF8140004E0D8F82800807A15
:103C30008DF81400D8F8000005AB01228179D8F87E
:103C400004000078FDF73EFC08B1484662E7BAF18F
:103C5000000F07D0D8F82800C07A40F0E0008DF8B7
:103C6000140002E018208DF81400D8F8000005AB0D
:103C70000122C179D8F804000078FDF723FC08B1CF
:103C8000484647E7BAF1000F02D0C820FDF75DF8BB
:103C900040208DF81400D8F8000005AB012201790E
:103CA000D8F804000078FDF70DFC08B1484631E76C
:103CB00078208DF81400D8F8000005AB0122417976
:103CC000D8F804000078FDF7FDFB08B1484621E76D
:103CD0003220FDF73AF88DF81470D8F8000005ABE3
:103CE00001224179D8F804000078FDF7EBFB08B118
:103CF00048460FE7D8F8000005AB0222817AD8F8D1
:103D000004000078FDF788FB08B1484602E79DF8FB
:103D100015009DF8141040EA0120B0FBF6F0C6B281
:103D2000AF606F602F60A76067602760002756E074
:103D3000D8F8000005AB0C22C17AD8F8040000784E
:103D4000FDF76AFB08B14846E4E69DF815009DF8CA
:103D5000141040EA012000B2ADF80C009DF81710D5
:103D60009DF8162041EA022109B2ADF80E109DF827
:103D700019209DF8183042EA032212B2ADF8102043
:103D8000236818442060606808446060A06810449C
:103D9000A0609DF81B009DF81A1040EA012000B2B7
:103DA000ADF804009DF81D109DF81C2041EA022189
:103DB00009B2ADF806109DF81F209DF81E3042EAAA
:103DC000032212B2ADF808202B68184428606868F6
:103DD00008446860A8681044A8607F1CFFB2B7421E
:103DE000A6D328688322C117090441EA10410004C0
:103DF0000023FCF799F932460023FCF795F9286077
:103E000068688322C117090441EA104100040023B5
:103E1000FCF78AF932460023FCF786F96860A86847
:103E20008322C117090441EA104100040023FCF772
:103E30007BF932460023FCF777F9A86020684FF43D
:103E40000065C117090441EA104100042A46002315
:103E5000FCF76AF932460023FCF766F920606068D7
:103E60002A46C117090441EA104100040023FCF767
:103E70005BF932460023FCF757F96060A0682A46D8
:103E8000C117090441EA104100040023FCF74CF972
:103E900032460023FCF748F9A060002803DDA0F5B6
:103EA0008030A06002E000F58030A060002031E6A4
:103EB000700000202DE9F84F81468A4600252F48E2
:103EC0006B46032240680D210078FDF7A5FA10B17A
:103ED0000720BDE8F88F9DF8000000F01F008DF866
:103EE00000009DF8010000F01F008DF801009DF812
:103EF000020000F01F008DF8020000246F464FF012
:103F0000010859F824005AF82410401A00D54042FC
:103F1000FCF7B6FB6FF00F01FCF71EFA0646385DA2
:103F2000F8B1174ADFF85CB004E059461046FCF7D8
:103F3000A3F90246385D401E10F0FF003855F4D159
:103F400011463046FCF7CAF94FF07E51FCF78EF966
:103F50000D4920F0004088420BDD08FA04F00543CB
:103F600007E00A483044B0F1D97F02D908FA04F0DA
:103F70000543641C032CC4DB2846AAE7700000201C
:103F80000000C84154E3853F295C0F3E0000E0BEBD
:103F900070B50446204600F00DF80546E01C00F020
:103FA00009F845EAC005A01D00F004F845EA8010B4
:103FB00080B270BD90F90010002902DD4FF00000C2
:103FC000704702DA4FF00400704790F901100029A1
:103FD00002DD4FF00100704702DA4FF00500704734
:103FE00090F90200002802DD4FF00200704702DA6B
:103FF0004FF0060070474FF00700704708B5FDF717
:104000000BFFFCF78FFEFDF7EAF9FCF739FEFDF731
:10401000AFF9FDF79DF8FDF767F86C4C4FF480524F
:1040200021466B48FDF776F869486214214618303E
:10403000FDF770F866484FF4804221462430FDF7C2
:1040400069F863484FF4004221460C30FDF762F8EE
:104050005F48E21421463030FDF75CF8FDF764FD5F
:10406000FDF7A6FAFDF7F2FB08235AA20A21002069
:10407000FDF7F6FC082359A21E210020FDF7F0FCF5
:10408000FDF704FD52483C30FDF756FA50486C30BD
:10409000FDF752FA4E4F0026524C4FF0B408203F25
:1040A0004FF00809607810B1012811D05EE04E4D44
:1040B000688800F0A5F8A080A88800F0A1F8E0804A
:1040C000A1880A0A3A707970010AB970F8704DE057
:1040D0002078012812D1434A1032111F081FFDF722
:1040E00057F826703A48A1683C30FDF728FA60611D
:1040F0003748E1686C30FDF722FAA0613B496069FE
:10410000FCF762F83A49FCF7E9F8DFF8E8A0514615
:10411000FCF7B2F8FCF7C2FA05B2A5803648A169EF
:10412000FCF7A4F83549FCF7D9F85146FCF7A4F898
:10413000FCF7B4FA00B2E080B42D01DDA4F80480ED
:10414000B4F90410002900DAA680B42801DDA4F82F
:104150000680B4F90600002800DAE680A088010A8B
:1041600039707870E088010AB970F870CDF8009065
:104170000323B4F904200A213220FDF73DFCCDF8D9
:1041800000900323B4F906201E213220FDF734FCF1
:10419000FDF77CFC0E482038FDF7ADFDA07020280F
:1041A00004D0FCF7BDFFFCF7C7FF7BE7A08810B188
:1041B000FCF7BCFF01E0FCF7B3FFE08810B1FCF7AF
:1041C000C1FF6FE7FCF7B8FF6CE70000000C01408F
:1041D000D000002070697463683A0000726F6C6CE4
:1041E0003A000000000000203E000020000048428D
:1041F0000000C84200003443000020420000A042FA
:1042000040F6320188420AD9A0F632005A214843CA
:1042100040F2CD7190FBF1F05A3080B2704740F21D
:10422000CE71884205D25A225043B0FBF1F080B2E1
:1042300070475A20704770472DE9F041002620F062
:104240000104144D95F82400002802D00020BDE898
:10425000F081A97A4FF0FF3839B12F7C21402974C1
:10426000A14200D0464624B901E04046EFE7287D50
:1042700018B1012000F0EAFE02E0002000F0E6FEA6
:104280002CB100F0F3FA10B12F744046DFE730464E
:10429000DDE70000700000200F4A517A002908D0A5
:1042A000012909D002290AD003290BD04FF0FF3091
:1042B00070470221017007E00421017004E0082129
:1042C000017001E010210170D17C11B10178490029
:1042D000017000207047000070000020114A517AE0
:1042E000002908D001290AD002290CD003290ED0B8
:1042F0004FF0FF3070474FF4804101800AE041F6F3
:104300009C71018006E04FF48051018002E04FF47F
:1043100000610180D17C11B1018849080180002031
:1043200070470000700000200249097C01700020E5
:1043300070470000700000200E49097A002909D05A
:1043400001290AD002290CD003290ED000210180B6
:1043500000207047FA210180FAE74FF4FA710180DA
:10436000F6E74FF47A710180F2E74FF4FA610180C9
:10437000EEE70000700000200C49097A002908D0FF
:10438000012909D002290AD003290BD04FF0FF30B0
:1043900070470749016007E00649016004E00649EB
:1043A000016001E0054901600020704770000020B5
:1043B000000003430000834233330342333383411D
:1043C0000F49C97A072917D2DFE801F01604070A56
:1043D0000D101300BC21018010E0622101800DE06E
:1043E0002A2101800AE01421018007E00A210180CE
:1043F00004E00521018001E00021018000207047D8
:1044000070000020054991F82420002A02D04FF0C6
:10441000FF307047C989018000207047700000207C
:104420002DE9FC4180208DF80000544C6B460122A0
:104430002068817C60680078FDF744F810B10120A5
:10444000BDE8FC816420FCF780FC00258DF800505D
:1044500020686B460122817C60680078FDF732F8A5
:1044600008B10220ECE720686B460622817D606877
:104470000078FCF7D1FF4FF0FF3708B13846DFE78F
:104480009DF805009DF80310C007400F01F00101E1
:1044900040EA41019DF8010000F0010001430126BE
:1044A00061B1012906D0022906D035A0FDF728FD0B
:1044B0003846C5E7E67414E0E57412E020686B4600
:1044C0000122C17860680078FCF7A6FF08B1384681
:1044D000B6E79DF8000000F00F0008B3042824D0D0
:1044E000E574FF2004F80A0F04F8020C04F8010C2C
:1044F00060704FF6FF71A180A0712072A6702676C1
:104500006576E572A572E56025616561A576E5765B
:10451000A5834FF4FA6000F0DFFB58B106208FE767
:104520002148FDF7EDFC38468AE720A0FDF7E8FCBE
:10453000E674D6E7022000F0CBFA08B107207FE747
:104540002A2000F035FC08B1082079E7322000F07D
:104550006DFC08B1092073E70020FFF76DFE08B17C
:104560000A206DE7002000F0EDFA08B10B2067E7A4
:10457000002000F09DFC002062E700007000002099
:10458000556E737570706F7274656420736F6674A6
:10459000776172652070726F6475637420726576DE
:1045A0002025642E0A0000007066000848616C66D1
:1045B0002073656E736974697669747920706172AD
:1045C0007420666F756E642E0A0000002DE9FF4F9F
:1045D00085B005460E461746DFF8A0804FF0FF393C
:1045E00098F82500002803D0484609B0BDE8F08FB0
:1045F0000EB1002425E04846F7E7281B102800DD0F
:1046000010201FFA80FA3019834602465146204690
:1046100000F0A6FC08B14846E7E701AA514620464B
:1046200000F0ECF808B14846DFE75846524601A9C9
:10463000FBF7BDFD10B16FF00100D6E704EB0A00F7
:1046400084B2AC42D9D3380A8DF800008DF80170DD
:10465000D8F800006B460222817ED8F8040000786A
:10466000FCF730FF08B14846BFE7012088F8250075
:104670000898A8F826000020B7E700007000002086
:104680002DE9F84304464FF0FF37282C02D938466D
:10469000BDE8F8832D4D4FF0070900268CB10120AD
:1046A00000F056FB20208DF800004FF00108012C8F
:1046B0001CD0052C20D88DF80180052000F078FB57
:1046C00029E0002000F044FB8DF800608DF8019097
:1046D00028686B460222817C68680078FCF7F2FE4D
:1046E00008B13846D4E72E750020D1E78DF8016077
:1046F000052000F05DFB0EE0142C06D802208DF89A
:1047000001000A2000F054FB05E003208DF80100B1
:10471000142000F04DFB9DF8010009EB80108DF88E
:10472000010028686B460222817C68680078FCF7EB
:10473000C9FE08B13846ABE70820A8722E7385F889
:1047400014800020FFF778FD0020A1E77000002012
:104750002DE9F843054689461746274E4FF0FF38A6
:1047600096F8240000280DD0B07A68B130686B4606
:104770000222817A70680078FCF74EFE30B1404624
:10478000BDE8F8834046FBE74046F9E79DF80100A5
:104790009DF8001040EA0124AC4203D2002038709A
:1047A0004046EDE770684188B4EB510F12D931688B
:1047B00000786B46497C0122FCF72EFE08B140468A
:1047C000DEE79DF80000C00604D500F04FF86FF05A
:1047D0000100D5E73068EAB24B46C17A70680078CC
:1047E000FCF71AFE08B14046CAE7B4FBF5F0401EDC
:1047F00038700020C4E70000700000202DE9F84365
:104800000E4690464FF0FF35B8F1000F10D0164F0E
:10481000B97A79B1010A8DF80010C4B28DF801405F
:10482000A0197C686189884206D92846BDE8F883CA
:104830002846FBE72846F9E738686B460222017EE6
:104840002078FCF73FFE08B12846EFE73868F2B25F
:104850004346417D78680078FCF7DEFD08B12846C4
:10486000E4E70020E2E7000070000020F8B5594DB1
:104870004FF0FF36A87A00280CD000240094286856
:104880006B460122C17B68680078FCF71BFE18B1FB
:104890003046F8BD3046F8BD28686B4601224179A4
:1048A00068680078FCF70EFE08B13046F8BD28684D
:1048B0006B460122017968680078FCF703FE08B1B5
:1048C0003046F8BD95F8240090B30C20009028687D
:1048D0006B460122017968680078FCF7F3FD08B1A6
:1048E0003046F8BD3220FCF730FAC0200090A87A9C
:1048F000C00701D0E020009028686B4601220179B2
:1049000068680078FCF7DEFD08B13046F8BD687CC9
:1049100010B10220009000E0009428686B4601224C
:10492000C17B68680078FCF7CDFD10B13046F8BD5A
:104930000BE0009428686B46012241796868007892
:10494000FCF7C0FDB8B33046F1E7042000902868BA
:104950006B460122017968680078FCF7B3FD08B165
:104960003046E4E7A87C78B9A87AC0070CD060206C
:10497000009028686B460122017968680078FCF78E
:10498000A1FD20B13046D2E740200090F1E732206F
:10499000FCF7DBF9687C10B10120009000E0009486
:1049A00028686B460122C17B68680078FCF78AFDA5
:1049B00010B13046BBE70BE02868064B0122417975
:1049C000686810330078FCF77DFD08B13046AEE72B
:1049D0000020ACE7700000202DE9F0438BB0814649
:1049E00088463A4D95F82400002804D0002000F0B5
:1049F00035F9012600E0002602A8FFF79DFC04A877
:104A0000FFF74AFC6846FFF7DBFC01A8FFF7FAFC5A
:104A1000AF7A03A8FFF788FC0024002241464846ED
:104A2000FFF75CF810B1641C022CF6DB022C19D0E5
:104A30000024012205A908A8FFF750F810B1641C52
:104A4000022CF6DB022C0FD005A94046FDF740FFF3
:104A500000F0FF0808A94846FFF72CFAC0B200246E
:104A600020B104E0002407E0002405E00124B8F1AF
:104A7000000F01D144F00204FF2028726872E8722E
:104A80004FF6FF71E981A872287401202873BDF8E0
:104A9000080000F021F99DF8100000F019F8BDF8A9
:104AA000000000F085F9BDF8040000F0BFF93846B9
:104AB00000F0FEF99DF80C00FFF7BEFB16B10120D7
:104AC00000F0CCF80BB02046BDE8F0837000002069
:104AD00038B51B4C4FF0FF35A17A002909D00228C8
:104AE00009D004280AD008280BD010280CD028465A
:104AF00038BD284638BD0020009007E0082000900F
:104B000004E01020009001E018200090607A9DF8E9
:104B10000010B0EBD10F01D1002038BD20686B46EA
:104B20000122C17960680078FCF7CCFC08B1284606
:104B300038BD9DF80000C0086072002038BD00003C
:104B400070000020F8B50446434DA87CA04201D176
:104B50000020F8BD40484FF0FF36D0E90010ACB35C
:104B6000097900786B460122FCF756FC08B1304603
:104B7000F8BD9DF8000020F02000009028686B46EA
:104B80000122017968680078FCF79CFC08B1304686
:104B9000F8BD0320FCF7D9F80220009095F8220018
:104BA00008B18220009095F8230020B19DF8000004
:104BB00040F03000009028686B460122017D686853
:104BC0000078FCF77FFCE8B33046F8BDFFE70979D1
:104BD00000786B460122FCF71FFC08B13046F4E771
:104BE000A87AC00705D09DF8000040F02000009092
:104BF00004E09DF8000020F02000009028686B463B
:104C00000122017968680078FCF75CFC08B1304645
:104C1000DBE70320FCF799F895F8220010B180201B
:104C2000009001E00020009095F8230020B19DF84D
:104C3000000040F03000009028686B46017D6868F5
:104C4000007800E005E00122FCF73CFC08B13046AA
:104C5000BBE7AC740020B8E77000002038B51D4CED
:104C600094F82410814201D1002038BD0025F0B114
:104C700094F82500C0B1002000F0E8F90020FFF70B
:104C800061FFE08C00F0D2F8009560686B4601226D
:104C900000782321FCF716FC012084F8240000F0A2
:104CA000D5F9FFF7E3FD12E04FF0FF3038BD0020EB
:104CB00000F0CCF9207C009060686B4601220078FF
:104CC0002321FCF7FFFB84F82450FFF7CFFD0020E1
:104CD00038BD00007000002038B51C4C4FF0FF3587
:104CE000A17A00290CD0FA280CD0B0F5FA7F0CD0AC
:104CF000B0F57A7F0CD0B0F5FA6F0CD0284638BDED
:104D0000284638BD0020009007E00820009004E00D
:104D10001020009001E018200090207A9DF80010EB
:104D2000B0EBD10F01D1002038BD20686B460122C5
:104D3000817960680078FCF7C5FB08B1284638BD6A
:104D40009DF80000C0082072002038BD70000020CF
:104D500038B50446154D95F82300A04201D1002036
:104D600038BD14B13020009001E000200090A87CF4
:104D700020B19DF8000040F00200009095F822005C
:104D800020B19DF8000040F08000009028686B463C
:104D90000122017D68680078FCF794FB10B14FF0A8
:104DA000FF3038BD85F82340002038BD700000205A
:104DB00038B51D4C4FF0FF35A17A002904D0BC282E
:104DC00004D30120009017E0284638BD622802D3A2
:104DD0000220009010E02A2802D3032000900BE06C
:104DE000142802D30420009006E00A2802D30520EC
:104DF000009001E006200090E07A9DF800108842C3
:104E000001D1002038BD20686B460122817860689E
:104E10000078FCF757FB08B1284638BD9DF8000024
:104E2000E072002038BD000070000020F8B5044694
:104E30001E4D4FF0FF37A87A002804D095F82400C3
:104E400018B13846F8BD3846F8BD287D50B134B1A8
:104E5000282C04D8E0B2FFF713FC0020F8BD002096
:104E6000FFF70EFC4FF47A76042C01D2042402E002
:104E7000B44200D93446B6FBF4F0401E00902868D6
:104E80006B460122417868680078FCF71BFB08B18B
:104E90003846F8BD9DF80000401CB6FBF0F0E881F4
:104EA0004008FFF785FF0020F8BD000070000020DB
:104EB000F8B5044614F0700F4FF0000602D0012040
:104EC000009004E00CB1009601E040200090234DDA
:104ED0006B4601222868817C68680078FCF7F2FA4A
:104EE0004FF0FF3710B1AE723846F8BD9DF80000A4
:104EF00020F0400028730096600601D40420009042
:104F0000A00604D49DF8000040F002000090E006E6
:104F100004D49DF8000040F001000090200704D464
:104F20009DF8000040F03800009028686B46012290
:104F3000C17C68680078FCF7C5FA10B1AE723846DB
:104F4000F8BD24B1082C02D00020FFF701FFAC729D
:104F50002E753220FBF7F9FE0020F8BD700000200E
:104F60002DE9F8430E4690464FF0FF35B8F1000F9B
:104F700010D0164FB97A79B1010A8DF80010C4B279
:104F80008DF80140A0197C686189884206D92846BD
:104F9000BDE8F8832846FBE72846F9E738686B4602
:104FA0000222017E2078FCF78DFA08B12846EFE74F
:104FB0003868F2B24346417D78680078FCF782FA9F
:104FC00008B12846E4E70020E2E700007000002076
:104FD00010B588B002A905A8FFF7FEFC072832D15A
:104FE00001A8FFF7C9F90598FBF74AFB01990C46A0
:104FF000FBF742F9FBF752FB05900698FBF740FBE5
:105000002146FBF739F9FBF749FB06900798FBF7B8
:1050100037FB2146FBF730F9FBF740FB079005A86B
:10502000FEF7B4FA6846FFF759F9BDF80000029997
:1050300041430291039941430391049941430491EF
:1050400002A8FEF7E5F908B010BD0000F8B51B4C4A
:105050000023224694F8246006CA5D1E002E11D05B
:1050600010B10220009000E000931078C97B6B46DD
:105070000122FCF727FA08B12846F8BD9DF8000088
:10508000607419E0A67A26B128B1667C1EB10020B2
:10509000F8BD2846F8BD10B10120009000E0009353
:1050A0001078C97B6B460122FCF70CFA08B1284640
:1050B000F8BD9DF8000060740020F8BD700000206D
:1050C0002DE9F04106460F46FBF7C2FC041E0D46D3
:1050D00018BF0120284320F00040C0F17F6000F19C
:1050E000E040C00F0ED0301C18BF0120384320F024
:1050F0000040C0F17F6000F1E040C00F04BF01201C
:10510000FCF79AFF20462946BDE8F0810000000028
:10511000000000000000000000000000000000F897
:1051200000000000000000333000000000160E00F8
:10513000160E0000000000000000000040C0784093
:10514000C0784000043F04043F040400007088FC61
:1051500008300000001820FF211E0000F008F000B9
:10516000E018000000211C031E211E0000F008882A
:10517000700000001E2123241927211000000016B2
:105180000E0000000000000000000000000000E031
:105190001804020000000007182040000002041854
:1051A000E00000000040201807000000404080F0B0
:1051B000804040000202010F01020200000000F0E6
:1051C000000000000101011F0101010000000000BA
:1051D0000000000000B070000000000000000000AF
:1051E00000000000000101010101010100000000B8
:1051F000000000000030300000000000000000004F
:1052000080601804006018060100000000E010082B
:105210000810E000000F102020100F00001010F800
:10522000000000000020203F20200000007008083F
:1052300008887000003028242221300000300888BF
:10524000884830000018202020110E000000C020E7
:1052500010F8000000070424243F240000F8088808
:10526000880808000019212020110E0000E0108895
:1052700088180000000F112020110E0000380808C7
:10528000C83808000000003F0000000000708808D7
:1052900008887000001C222121221C0000E0100858
:1052A0000810E0000000312222110F00000000C0B1
:1052B000C00000000000003030000000000000C00E
:1052C000C0000000000080B07000000000008040BE
:1052D0002010080000010204081020004040404057
:1052E00040404000040404040404040000081020AA
:1052F00040800000002010080402010000704808EF
:105300000808F0000000003036010000C030C82856
:10531000E810E0000718272423140B000000C03811
:10532000E0000000203C23020227382008F888888B
:1053300088700000203F202020110E00C030080897
:1053400008083800071820202010080008F808086E
:105350000810E000203F202020100F0008F8888867
:10536000E8081000203F20202320180008F8888833
:10537000E8081000203F200003000000C0300808AB
:105380000838000007182020221E020008F8080034
:105390000008F808203F210101213F20000808F8FB
:1053A000080800000020203F20200000000008081E
:1053B000F8080800C08080807F00000008F888C0DE
:1053C00028180800203F20012638200008F808008F
:1053D00000000000203F20202020300008F8F800C6
:1053E000F8F80800203F003F003F200008F830C0D8
:1053F0000008F808203F200007183F00E0100808C8
:105400000810E0000F10202020100F0008F80808F6
:105410000808F000203F210101010000E010080809
:105420000810E0000F18242438504F0008F888882E
:1054300088887000203F2000030C3020007088080E
:10544000080838000038202121221C00180808F81C
:10545000080818000000203F2000000008F808009D
:105460000008F808001F202020201F00087888006E
:1054700000C83808000007380E010000F80800F8DE
:105480000008F800033C0700073C03000818688088
:105490008068180820302C03032C30200838C800FE
:1054A000C83808000000203F20000000100808084D
:1054B000C83808002038262120201800000000FEEF
:1054C000020202000000007F40404000000C30C09B
:1054D00000000000000000010638C00000020202C7
:1054E000FE000000004040407F0000000020100847
:1054F0000408102000000000000000000000000070
:10550000000000008080808080808080000204088D
:10551000000000000000000000000000000080808B
:10552000808000000019242222223F2008F80080F9
:1055300080000000003F112020110E0000000080BC
:1055400080800000000E112020201100000000804B
:105550008088F800000E112020103F20000080807D
:1055600080800000001F222222221300008080F091
:10557000888888180020203F2020000000008080BC
:1055800080808000006B94949493600008F8008001
:1055900080800000203F210000203F20008098985C
:1055A000000000000020203F2020000000000080BC
:1055B0009898000000C08080807F000008F80000FC
:1055C00080808000203F24022D302000000808F851
:1055D000000000000020203F20200000808080800C
:1055E00080808000203F20003F20003F008080001E
:1055F0008080000000203F2100203F2000008080AC
:1056000080800000001F202020201F00808000805C
:105610008000000080FFA12020110E00000000800B
:1056200080808000000E112020A0FF8080808000FC
:105630008080800020203F21200001000000808029
:10564000808080000033242424241900008080E01E
:10565000808000000000001F2020000080800000EB
:1056600000808000001F202020103F2080808000CC
:105670000080808000010E300806010080800080DC
:10568000008080800F300C030C300F000080800001
:10569000808080000020312E0E312000808080002C
:1056A0000080808080818E701806010000808080DC
:1056B000808080000021302C22213000000000007A
:1056C000807C020200000000003F4040000000001B
:1056D000FF00000000000000FF0000000002027C4C
:1056E000800000000040403F00000000008040407B
:1056F00080000080000000000001010000000000A8
:1057000000000000002F0000000007000700001448
:105710007F147F1400242A7F2A1200231308646256
:1057200000364955225000000007000000001C22EE
:105730004100000041221C000014083E081400082B
:10574000083E0808000000A06000000808080808DB
:10575000000060600000002010080402003E514973
:10576000453E0000427F4000004261514946002111
:1057700041454B31001814127F100027454545392B
:10578000003C4A4949300001710905030036494986
:10579000493600064949291E00003636000000003F
:1057A000563600000008142241000014141414148A
:1057B000000041221408000201510906003E49552B
:1057C000592E007C1211127C007F49494936003E57
:1057D00041414122007F4141221C007F494949410A
:1057E000007F09090901003E4149497A007F080804
:1057F000087F0000417F4100002040413F01007FC1
:1058000008142241007F40404040007F020C027F8C
:10581000007F0408107F003E4141413E007F09099E
:105820000906003E4151215E007F091929460046C4
:10583000494949310001017F0101003F4040403F9B
:10584000001F2040201F003F4038403F00631408E5
:1058500014630007087008070061514945430000C0
:105860007F414100000204081020000041417F00F8
:1058700000040201020400404040404000000102D8
:105880000400002054545478007F484444380038C1
:105890004444442000384444487F00385454541849
:1058A00000087E0901020018A4A4A47C007F08045B
:1058B00004780000447D4000004080847D00007F2B
:1058C000102844000000417F4000007C0418047848
:1058D000007C0804047800384444443800FC242444
:1058E00024180018242418FC007C0804040800482C
:1058F0005454542000043F444020003C4040207C4D
:10590000001C2040201C003C4030403C004428103B
:105910002844001CA0A0A07C004464544C44000017
:10592000087F41000000007F00000000417F080068
:1059300000080408100875191A0C6A231B1C1F2084
:105940007274433B4138393A6B6C376F06246D6E85
:1059500070006800000476005401F7FD00010000AB
:10596000830000000008000000010018320005005C
:10597000000020410000D242295C0F3E9A99993ED6
:105980003333733F295C0F3E000070000000002499
:10599000000000020003000000650054FFEF00005B
:1059A000FA80000B12820001030C30C30E8C8CE9CC
:1059B00014D5400213710F8E3883F8833000F883BA
:1059C000258EF8833000F883FFFFFFFF0FFEA9D676
:1059D000240004001A8279A10000003CFFFF0000AF
:1059E0000010000038836FA2003E0330400000002A
:1059F00002CAE3093E800000200000000000000011
:105A00004000000060000000000C0000000C186E58
:105A1000000006920A16C0DFFFFF0256FD8CD37706
:105A2000FFE1C496E0C5BEAA00000000FFFF0B2BFB
:105A300000001657000003594000000000001DFA46
:105A400000026C1D000000003FFFDFEB003EB3B61C
:105A5000000D227800002F3C00000000001942B524
:105A6000000039A20000B365D90E9FC91DCF4C3488
:105A700030000000500000003BB67AE800640000EF
:105A800000C8000000000000100000001000FA92A2
:105A90001000225E000D229F000100000032000075
:105AA000FF46000063D400001000000004D6000090
:105AB00004CC000004CC0000000010720000004084
:105AC00000000000000000000006000200050007C2
:105AD000000000000064000000000000000000055D
